{
  "contractName": "Controller",
  "abi": [
    {
      "inputs": [
        {
          "internalType": "address",
          "name": "_factory",
          "type": "address"
        },
        {
          "internalType": "address",
          "name": "_usdt",
          "type": "address"
        }
      ],
      "payable": false,
      "stateMutability": "nonpayable",
      "type": "constructor"
    },
    {
      "constant": true,
      "inputs": [],
      "name": "MANTISSA",
      "outputs": [
        {
          "internalType": "uint256",
          "name": "",
          "type": "uint256"
        }
      ],
      "payable": false,
      "stateMutability": "view",
      "type": "function"
    },
    {
      "constant": true,
      "inputs": [],
      "name": "collateralFactor",
      "outputs": [
        {
          "internalType": "uint256",
          "name": "",
          "type": "uint256"
        }
      ],
      "payable": false,
      "stateMutability": "view",
      "type": "function"
    },
    {
      "constant": true,
      "inputs": [],
      "name": "factory",
      "outputs": [
        {
          "internalType": "address",
          "name": "",
          "type": "address"
        }
      ],
      "payable": false,
      "stateMutability": "view",
      "type": "function"
    },
    {
      "constant": true,
      "inputs": [],
      "name": "liquidationFactor",
      "outputs": [
        {
          "internalType": "uint256",
          "name": "",
          "type": "uint256"
        }
      ],
      "payable": false,
      "stateMutability": "view",
      "type": "function"
    },
    {
      "constant": true,
      "inputs": [
        {
          "internalType": "uint256",
          "name": "",
          "type": "uint256"
        }
      ],
      "name": "marketList",
      "outputs": [
        {
          "internalType": "address",
          "name": "",
          "type": "address"
        }
      ],
      "payable": false,
      "stateMutability": "view",
      "type": "function"
    },
    {
      "constant": true,
      "inputs": [
        {
          "internalType": "address",
          "name": "",
          "type": "address"
        }
      ],
      "name": "markets",
      "outputs": [
        {
          "internalType": "bool",
          "name": "",
          "type": "bool"
        }
      ],
      "payable": false,
      "stateMutability": "view",
      "type": "function"
    },
    {
      "constant": true,
      "inputs": [
        {
          "internalType": "address",
          "name": "",
          "type": "address"
        }
      ],
      "name": "marketsByToken",
      "outputs": [
        {
          "internalType": "address",
          "name": "",
          "type": "address"
        }
      ],
      "payable": false,
      "stateMutability": "view",
      "type": "function"
    },
    {
      "constant": true,
      "inputs": [],
      "name": "owner",
      "outputs": [
        {
          "internalType": "address",
          "name": "",
          "type": "address"
        }
      ],
      "payable": false,
      "stateMutability": "view",
      "type": "function"
    },
    {
      "constant": true,
      "inputs": [
        {
          "internalType": "address",
          "name": "",
          "type": "address"
        }
      ],
      "name": "prices",
      "outputs": [
        {
          "internalType": "uint256",
          "name": "",
          "type": "uint256"
        }
      ],
      "payable": false,
      "stateMutability": "view",
      "type": "function"
    },
    {
      "constant": true,
      "inputs": [],
      "name": "unit",
      "outputs": [
        {
          "internalType": "uint256",
          "name": "",
          "type": "uint256"
        }
      ],
      "payable": false,
      "stateMutability": "view",
      "type": "function"
    },
    {
      "constant": true,
      "inputs": [],
      "name": "usdt",
      "outputs": [
        {
          "internalType": "address",
          "name": "",
          "type": "address"
        }
      ],
      "payable": false,
      "stateMutability": "view",
      "type": "function"
    },
    {
      "constant": true,
      "inputs": [],
      "name": "marketListSize",
      "outputs": [
        {
          "internalType": "uint256",
          "name": "",
          "type": "uint256"
        }
      ],
      "payable": false,
      "stateMutability": "view",
      "type": "function"
    },
    {
      "constant": false,
      "inputs": [
        {
          "internalType": "uint256",
          "name": "factor",
          "type": "uint256"
        }
      ],
      "name": "setCollateralFactor",
      "outputs": [],
      "payable": false,
      "stateMutability": "nonpayable",
      "type": "function"
    },
    {
      "constant": false,
      "inputs": [
        {
          "internalType": "uint256",
          "name": "factor",
          "type": "uint256"
        }
      ],
      "name": "setLiquidationFactor",
      "outputs": [],
      "payable": false,
      "stateMutability": "nonpayable",
      "type": "function"
    },
    {
      "constant": false,
      "inputs": [
        {
          "internalType": "address",
          "name": "_factory",
          "type": "address"
        }
      ],
      "name": "setFactory",
      "outputs": [],
      "payable": false,
      "stateMutability": "nonpayable",
      "type": "function"
    },
    {
      "constant": false,
      "inputs": [
        {
          "internalType": "address",
          "name": "market",
          "type": "address"
        },
        {
          "internalType": "uint256",
          "name": "price",
          "type": "uint256"
        }
      ],
      "name": "setPrice",
      "outputs": [],
      "payable": false,
      "stateMutability": "nonpayable",
      "type": "function"
    },
    {
      "constant": true,
      "inputs": [
        {
          "internalType": "contract MarketInterface",
          "name": "market",
          "type": "address"
        }
      ],
      "name": "pairFor",
      "outputs": [
        {
          "internalType": "address",
          "name": "",
          "type": "address"
        }
      ],
      "payable": false,
      "stateMutability": "view",
      "type": "function"
    },
    {
      "constant": true,
      "inputs": [
        {
          "internalType": "address",
          "name": "t",
          "type": "address"
        }
      ],
      "name": "getDecimal",
      "outputs": [
        {
          "internalType": "uint256",
          "name": "",
          "type": "uint256"
        }
      ],
      "payable": false,
      "stateMutability": "view",
      "type": "function"
    },
    {
      "constant": true,
      "inputs": [
        {
          "internalType": "contract MarketInterface",
          "name": "market",
          "type": "address"
        }
      ],
      "name": "getPrice",
      "outputs": [
        {
          "internalType": "uint256",
          "name": "",
          "type": "uint256"
        }
      ],
      "payable": false,
      "stateMutability": "view",
      "type": "function"
    },
    {
      "constant": true,
      "inputs": [
        {
          "internalType": "address",
          "name": "_token",
          "type": "address"
        }
      ],
      "name": "getInternalPrice",
      "outputs": [
        {
          "internalType": "uint256",
          "name": "",
          "type": "uint256"
        }
      ],
      "payable": false,
      "stateMutability": "view",
      "type": "function"
    },
    {
      "constant": false,
      "inputs": [
        {
          "internalType": "address",
          "name": "market",
          "type": "address"
        }
      ],
      "name": "addMarket",
      "outputs": [],
      "payable": false,
      "stateMutability": "nonpayable",
      "type": "function"
    },
    {
      "constant": true,
      "inputs": [
        {
          "internalType": "address",
          "name": "account",
          "type": "address"
        }
      ],
      "name": "getAccountLiquidity",
      "outputs": [
        {
          "internalType": "uint256",
          "name": "",
          "type": "uint256"
        }
      ],
      "payable": false,
      "stateMutability": "view",
      "type": "function"
    },
    {
      "constant": true,
      "inputs": [
        {
          "internalType": "address",
          "name": "account",
          "type": "address"
        }
      ],
      "name": "getAccountHealth",
      "outputs": [
        {
          "internalType": "uint256",
          "name": "",
          "type": "uint256"
        }
      ],
      "payable": false,
      "stateMutability": "view",
      "type": "function"
    },
    {
      "constant": true,
      "inputs": [
        {
          "internalType": "address",
          "name": "account",
          "type": "address"
        }
      ],
      "name": "getAccountValues",
      "outputs": [
        {
          "internalType": "uint256",
          "name": "supplyValue",
          "type": "uint256"
        },
        {
          "internalType": "uint256",
          "name": "borrowValue",
          "type": "uint256"
        }
      ],
      "payable": false,
      "stateMutability": "view",
      "type": "function"
    },
    {
      "constant": false,
      "inputs": [
        {
          "internalType": "address",
          "name": "borrower",
          "type": "address"
        },
        {
          "internalType": "address",
          "name": "liquidator",
          "type": "address"
        },
        {
          "internalType": "uint256",
          "name": "amount",
          "type": "uint256"
        },
        {
          "internalType": "contract MarketInterface",
          "name": "collateralMarket",
          "type": "address"
        }
      ],
      "name": "liquidateCollateral",
      "outputs": [
        {
          "internalType": "uint256",
          "name": "collateralAmount",
          "type": "uint256"
        }
      ],
      "payable": false,
      "stateMutability": "nonpayable",
      "type": "function"
    }
  ],
  "bytecode": "0x6080604052620f424060095534801561001757600080fd5b50604051611a15380380611a158339818101604052604081101561003a57600080fd5b508051602090910151600280546001600160a01b03199081163317909155600080546001600160a01b039384169083161790556001805492909316911617905561198c806100896000396000f3fe608060405234801561001057600080fd5b50600436106101725760003560e01c80635ec88c79116100de578063966da2b811610097578063cfed246b11610071578063cfed246b14610421578063df011c4114610447578063e1b08b261461044f578063e59e80181461047557610172565b8063966da2b8146103d6578063b5c22157146103fc578063c45a01551461041957610172565b80635ec88c79146103235780637c1914c3146103495780638da5cb5b146103665780638e8f294b1461036e578063907af6c0146103a857806393e30633146103b057610172565b80633baadca0116101305780633baadca01461022e5780633bb54d7e1461026d578063405f10e1146102a957806341976e09146102b157806353f710d0146102d75780635bb47808146102fd57610172565b8062e4768b146101775780630afa3da5146101a5578063232b956c146101e75780632703984c146102045780632f48ab7d1461021e578063352ade5514610226575b600080fd5b6101a36004803603604081101561018d57600080fd5b506001600160a01b03813516906020013561049b565b005b6101cb600480360360208110156101bb57600080fd5b50356001600160a01b0316610541565b604080516001600160a01b039092168252519081900360200190f35b6101cb600480360360208110156101fd57600080fd5b5035610651565b61020c610678565b60408051918252519081900360200190f35b6101cb61067f565b61020c61068e565b6102546004803603602081101561024457600080fd5b50356001600160a01b0316610694565b6040805192835260208301919091528051918290030190f35b61020c6004803603608081101561028357600080fd5b506001600160a01b03813581169160208101358216916040820135916060013516610867565b61020c6109b0565b61020c600480360360208110156102c757600080fd5b50356001600160a01b03166109b6565b61020c600480360360208110156102ed57600080fd5b50356001600160a01b0316610ebf565b6101a36004803603602081101561031357600080fd5b50356001600160a01b03166112af565b61020c6004803603602081101561033957600080fd5b50356001600160a01b0316611336565b6101a36004803603602081101561035f57600080fd5b50356113fa565b6101cb611416565b6103946004803603602081101561038457600080fd5b50356001600160a01b0316611425565b604080519115158252519081900360200190f35b61020c61143a565b6101a3600480360360208110156103c657600080fd5b50356001600160a01b0316611440565b61020c600480360360208110156103ec57600080fd5b50356001600160a01b03166115b8565b6101a36004803603602081101561041257600080fd5b5035611676565b6101cb611692565b61020c6004803603602081101561043757600080fd5b50356001600160a01b03166116a1565b61020c6116b3565b6101cb6004803603602081101561046557600080fd5b50356001600160a01b03166116b9565b61020c6004803603602081101561048b57600080fd5b50356001600160a01b03166116d4565b6002546001600160a01b031633146104b257600080fd5b6001600160a01b038216610500576040805162461bcd60e51b815260206004820152601060248201526f41444452455353204552524f5221212160801b604482015290519081900360640190fd5b6001600160a01b03821660009081526003602052604090205460ff1661052557600080fd5b6001600160a01b03909116600090815260056020526040902055565b6000600160009054906101000a90046001600160a01b03166001600160a01b031663e6a43905836001600160a01b031663fc0c546a6040518163ffffffff1660e01b815260040160206040518083038186803b1580156105a057600080fd5b505afa1580156105b4573d6000803e3d6000fd5b505050506040513d60208110156105ca57600080fd5b5051600054604080516001600160e01b031960e086901b1681526001600160a01b039384166004820152929091166024830152516044808301926020929190829003018186803b15801561061d57600080fd5b505afa158015610631573d6000803e3d6000fd5b505050506040513d602081101561064757600080fd5b505190505b919050565b6006818154811061065e57fe5b6000918252602090912001546001600160a01b0316905081565b620f424081565b6000546001600160a01b031681565b60085481565b6000806001600160a01b0383166106e5576040805162461bcd60e51b815260206004820152601060248201526f41444452455353204552524f5221212160801b604482015290519081900360640190fd5b60005b6006548110156108615760006006828154811061070157fe5b6000918252602082200154600680546001600160a01b039092169350610745918590811061072b57fe5b6000918252602090912001546001600160a01b03166109b6565b90506107e96107dc82846001600160a01b031663e681dc718a6040518263ffffffff1660e01b815260040180826001600160a01b03166001600160a01b0316815260200191505060206040518083038186803b1580156107a457600080fd5b505afa1580156107b8573d6000803e3d6000fd5b505050506040513d60208110156107ce57600080fd5b50519063ffffffff61174716565b869063ffffffff6117a916565b945061085561084882846001600160a01b0316632aad6aa88a6040518263ffffffff1660e01b815260040180826001600160a01b03166001600160a01b0316815260200191505060206040518083038186803b1580156107a457600080fd5b859063ffffffff6117a916565b935050506001016106e8565b50915091565b3360009081526003602052604081205460ff1661088357600080fd5b6001600160a01b0385166108d1576040805162461bcd60e51b815260206004820152601060248201526f41444452455353204552524f5221212160801b604482015290519081900360640190fd5b6001600160a01b03841661091f576040805162461bcd60e51b815260206004820152601060248201526f41444452455353204552524f5221212160801b604482015290519081900360640190fd5b600061092a336109b6565b90506000811161093957600080fd5b6000610944846109b6565b90506000811161095357600080fd5b60008061095f89610694565b9092509050806109a4576040805162461bcd60e51b815260206004820152600b60248201526a626f72726f7756616c756560a81b604482015290519081900360640190fd5b50505050949350505050565b60065490565b600080600160009054906101000a90046001600160a01b03166001600160a01b031663e6a43905846001600160a01b031663fc0c546a6040518163ffffffff1660e01b815260040160206040518083038186803b158015610a1657600080fd5b505afa158015610a2a573d6000803e3d6000fd5b505050506040513d6020811015610a4057600080fd5b5051600054604080516001600160e01b031960e086901b1681526001600160a01b039384166004820152929091166024830152516044808301926020929190829003018186803b158015610a9357600080fd5b505afa158015610aa7573d6000803e3d6000fd5b505050506040513d6020811015610abd57600080fd5b505190506001600160a01b038116610aef5750506001600160a01b03811660009081526005602052604090205461064c565b600080826001600160a01b0316630902f1ac6040518163ffffffff1660e01b815260040160606040518083038186803b158015610b2b57600080fd5b505afa158015610b3f573d6000803e3d6000fd5b505050506040513d6060811015610b5557600080fd5b5080516020909101516001600160701b039182169350169050811580610b79575080155b15610ba057505050506001600160a01b03811660009081526005602052604090205461064c565b6000836001600160a01b0316630dfe16816040518163ffffffff1660e01b815260040160206040518083038186803b158015610bdb57600080fd5b505afa158015610bef573d6000803e3d6000fd5b505050506040513d6020811015610c0557600080fd5b50516040805163313ce56760e01b815290516001600160a01b039092169163313ce56791600480820192602092909190829003018186803b158015610c4957600080fd5b505afa158015610c5d573d6000803e3d6000fd5b505050506040513d6020811015610c7357600080fd5b50516040805163d21220a760e01b81529051600a9290920a92506000916001600160a01b0387169163d21220a7916004808301926020929190829003018186803b158015610cc057600080fd5b505afa158015610cd4573d6000803e3d6000fd5b505050506040513d6020811015610cea57600080fd5b50516040805163313ce56760e01b815290516001600160a01b039092169163313ce56791600480820192602092909190829003018186803b158015610d2e57600080fd5b505afa158015610d42573d6000803e3d6000fd5b505050506040513d6020811015610d5857600080fd5b505160408051630dfe168160e01b81529051600a9290920a92506001600160a01b03871691630dfe168191600480820192602092909190829003018186803b158015610da357600080fd5b505afa158015610db7573d6000803e3d6000fd5b505050506040513d6020811015610dcd57600080fd5b505160408051637e062a3560e11b815290516001600160a01b03928316928a169163fc0c546a916004808301926020929190829003018186803b158015610e1357600080fd5b505afa158015610e27573d6000803e3d6000fd5b505050506040513d6020811015610e3d57600080fd5b50516001600160a01b03161415610e9357610e8781610e7b86610e7b600954610e6f888a61174790919063ffffffff16565b9063ffffffff61174716565b9063ffffffff61180316565b9550505050505061064c565b610eb482610e7b85610e7b600954610e6f878b61174790919063ffffffff16565b979650505050505050565b60006001600160a01b038216610f0f576040805162461bcd60e51b815260206004820152601060248201526f41444452455353204552524f5221212160801b604482015290519081900360640190fd5b600154600080546040805163e6a4390560e01b81526001600160a01b038781166004830152928316602482015290519293919091169163e6a4390591604480820192602092909190829003018186803b158015610f6b57600080fd5b505afa158015610f7f573d6000803e3d6000fd5b505050506040513d6020811015610f9557600080fd5b505190506001600160a01b038116610fb157600191505061064c565b600080826001600160a01b0316630902f1ac6040518163ffffffff1660e01b815260040160606040518083038186803b158015610fed57600080fd5b505afa158015611001573d6000803e3d6000fd5b505050506040513d606081101561101757600080fd5b5080516020909101516001600160701b03918216935016905081158061103b575080155b1561104c576001935050505061064c565b6000836001600160a01b0316630dfe16816040518163ffffffff1660e01b815260040160206040518083038186803b15801561108757600080fd5b505afa15801561109b573d6000803e3d6000fd5b505050506040513d60208110156110b157600080fd5b50516040805163313ce56760e01b815290516001600160a01b039092169163313ce56791600480820192602092909190829003018186803b1580156110f557600080fd5b505afa158015611109573d6000803e3d6000fd5b505050506040513d602081101561111f57600080fd5b50516040805163d21220a760e01b81529051600a9290920a92506000916001600160a01b0387169163d21220a7916004808301926020929190829003018186803b15801561116c57600080fd5b505afa158015611180573d6000803e3d6000fd5b505050506040513d602081101561119657600080fd5b50516040805163313ce56760e01b815290516001600160a01b039092169163313ce56791600480820192602092909190829003018186803b1580156111da57600080fd5b505afa1580156111ee573d6000803e3d6000fd5b505050506040513d602081101561120457600080fd5b505160408051630dfe168160e01b81529051600a9290920a92506001600160a01b03871691630dfe168191600480820192602092909190829003018186803b15801561124f57600080fd5b505afa158015611263573d6000803e3d6000fd5b505050506040513d602081101561127957600080fd5b50516001600160a01b0388811691161415610e9357610e8781610e7b86610e7b600954610e6f888a61174790919063ffffffff16565b6002546001600160a01b031633146112c657600080fd5b6001600160a01b038116611314576040805162461bcd60e51b815260206004820152601060248201526f41444452455353204552524f5221212160801b604482015290519081900360640190fd5b600180546001600160a01b0319166001600160a01b0392909216919091179055565b60006001600160a01b038216611386576040805162461bcd60e51b815260206004820152601060248201526f41444452455353204552524f5221212160801b604482015290519081900360640190fd5b6000808061139385610694565b60075491935091506113bf906113b290620f424063ffffffff6117a916565b829063ffffffff61174716565b90506113d481620f424063ffffffff61180316565b9050818110156113f1576113ee828263ffffffff61186a16565b92505b50909392505050565b6002546001600160a01b0316331461141157600080fd5b600855565b6002546001600160a01b031681565b60036020526000908152604090205460ff1681565b60095481565b6002546001600160a01b0316331461145757600080fd5b6001600160a01b0381166114a5576040805162461bcd60e51b815260206004820152601060248201526f41444452455353204552524f5221212160801b604482015290519081900360640190fd5b6000816001600160a01b031663fc0c546a6040518163ffffffff1660e01b815260040160206040518083038186803b1580156114e057600080fd5b505afa1580156114f4573d6000803e3d6000fd5b505050506040513d602081101561150a57600080fd5b50516001600160a01b03808216600090815260046020526040902054919250161561153457600080fd5b6001600160a01b039182166000818152600360209081526040808320805460ff191660019081179091559490951682526004905292832080546001600160a01b031990811683179091556006805493840181559093527ff652222313e28459528d920b65115c16c04f3efc82aaedc97be59f3f377c0d3f9091018054909216179055565b60006001600160a01b038216611608576040805162461bcd60e51b815260206004820152601060248201526f41444452455353204552524f5221212160801b604482015290519081900360640190fd5b816001600160a01b031663313ce5676040518163ffffffff1660e01b815260040160206040518083038186803b15801561164157600080fd5b505afa158015611655573d6000803e3d6000fd5b505050506040513d602081101561166b57600080fd5b5051600a0a92915050565b6002546001600160a01b0316331461168d57600080fd5b600755565b6001546001600160a01b031681565b60056020526000908152604090205481565b60075481565b6004602052600090815260409020546001600160a01b031681565b60006001600160a01b038216611724576040805162461bcd60e51b815260206004820152601060248201526f41444452455353204552524f5221212160801b604482015290519081900360640190fd5b60008061173084610694565b909250905061173f82826118c7565b949350505050565b600082611756575060006117a3565b8282028284828161176357fe5b04146117a05760405162461bcd60e51b81526004018080602001828103825260218152602001806119376021913960400191505060405180910390fd5b90505b92915050565b6000828201838110156117a0576040805162461bcd60e51b815260206004820152601b60248201527f536166654d6174683a206164646974696f6e206f766572666c6f770000000000604482015290519081900360640190fd5b6000808211611859576040805162461bcd60e51b815260206004820152601a60248201527f536166654d6174683a206469766973696f6e206279207a65726f000000000000604482015290519081900360640190fd5b81838161186257fe5b049392505050565b6000828211156118c1576040805162461bcd60e51b815260206004820152601e60248201527f536166654d6174683a207375627472616374696f6e206f766572666c6f770000604482015290519081900360640190fd5b50900390565b60008215806118d4575081155b156118e1575060006117a3565b600854611908906118fb90620f424063ffffffff6117a916565b839063ffffffff61174716565b915061191d82620f424063ffffffff61180316565b91506117a082610e7b85620f424063ffffffff6117471656fe536166654d6174683a206d756c7469706c69636174696f6e206f766572666c6f77a265627a7a723158208495d0524dd5a02f90f90e8068deb935346f58a2b4ca9b6fb40194f6cddae4f664736f6c634300050c0032",
  "source": "pragma solidity >=0.5.0 <0.8.0;\n\nimport \"./lib/ERC20Basic.sol\";\nimport \"./MarketInterface.sol\";\nimport \"./lib/SafeMath.sol\";\nimport './lib/Babylonian.sol';\nimport './lib/FixedPoint.sol';\nimport './lib/UniswapV2OracleLibrary.sol';\nimport './interfaces/IUniswapV2Pair.sol';\nimport './interfaces/IUniswapV2Factory.sol';\n\n\ncontract Controller {\n    using SafeMath for uint256;\n\n    // uniswap\n    address public usdt;\n    // uniswap\n    address public factory;\n\n    // oracle\n\n    address public owner;\n\n    mapping (address => bool) public markets;\n    mapping (address => address) public marketsByToken;\n    mapping (address => uint) public prices;\n\n    address[] public marketList;\n\n    uint public collateralFactor;\n    uint public liquidationFactor;\n    uint public constant MANTISSA = 1e6;\n    uint public unit = 1e6;\n    constructor(address _factory,address _usdt) public {\n        owner = msg.sender;\n        usdt = _usdt;\n        factory = _factory;\n    }\n\n    modifier onlyOwner() {\n        require(msg.sender == owner);\n        _;\n    }\n\n    modifier onlyMarket() {\n        require(markets[msg.sender]);\n        _;\n    }\n\n    function marketListSize() public view returns (uint) {\n      return marketList.length;\n    }\n\n    function setCollateralFactor(uint factor) public onlyOwner {\n        collateralFactor = factor;\n    }\n\n    function setLiquidationFactor(uint factor) public onlyOwner {\n        liquidationFactor = factor;\n    }\n\n    function setFactory(address _factory) public onlyOwner {\n        require(_factory != address(0) , 'ADDRESS ERROR!!!');\n        factory = _factory;\n    }\n\n    //  uni \n    function setPrice(address market, uint price) public onlyOwner {\n        require(market != address(0) , 'ADDRESS ERROR!!!');\n        require(markets[market]);\n\n        prices[market] = price;\n    }\n\n    function pairFor(MarketInterface market) public view returns(address){\n        return IUniswapV2Factory(factory).getPair(market.token(), usdt);\n    }\n\n    function getDecimal(address t) public view returns(uint256){\n         require(t != address(0) , 'ADDRESS ERROR!!!');\n        return 10 ** uint256(IERC20(t).decimals());\n    }\n\n    function getPrice(MarketInterface market) public view returns(uint256){\n        IUniswapV2Pair _pair =\n            IUniswapV2Pair(\n                IUniswapV2Factory(factory).getPair(market.token(), usdt)\n            );\n        if(address(0)==address(_pair)){\n            return prices[address(market)];\n        }\n        // uni  USDT\n        (uint256 reserve0, uint256 reserve1, ) = _pair.getReserves();\n        if(reserve0 <= 0 || reserve1 <= 0){\n            return prices[address(market)];\n        }\n        uint256 token0Decimal = 10 ** uint256(IERC20(_pair.token0()).decimals());\n        uint256 token1Decimal = 10 ** uint256(IERC20(_pair.token1()).decimals());\n        if (market.token() == _pair.token0()) {\n            return reserve1.mul(token0Decimal).mul(unit).div(reserve0).div(token1Decimal);\n        }\n        return reserve0.mul(token1Decimal).mul(unit).div(reserve1).div(token0Decimal);\n    }\n\n    function getInternalPrice(address _token) public view returns(uint256){\n        require(_token != address(0) , 'ADDRESS ERROR!!!');\n        IUniswapV2Pair _pair =\n            IUniswapV2Pair(\n                IUniswapV2Factory(factory).getPair(_token, usdt)\n            );\n        if(address(0)==address(_pair)){\n            return 1;\n        }\n        // uni  USDT\n        (uint256 reserve0, uint256 reserve1, ) = _pair.getReserves();\n        if(reserve0 <= 0 || reserve1 <= 0){\n            return 1;\n        }\n        uint256 token0Decimal = 10 ** uint256(IERC20(_pair.token0()).decimals());\n        uint256 token1Decimal = 10 ** uint256(IERC20(_pair.token1()).decimals());\n        if (_token == _pair.token0()) {\n            return reserve1.mul(token0Decimal).mul(unit).div(reserve0).div(token1Decimal);\n        }\n        return reserve0.mul(token1Decimal).mul(unit).div(reserve1).div(token0Decimal);\n    }\n\n    function addMarket(address market) public onlyOwner {\n        require(market != address(0) , 'ADDRESS ERROR!!!');\n        address marketToken = MarketInterface(market).token();\n        require(marketsByToken[marketToken] == address(0));\n        markets[market] = true;\n        marketsByToken[marketToken] = market;\n        marketList.push(market);\n    }\n\n    function getAccountLiquidity(address account) public view returns (uint) {\n        require(account != address(0) , 'ADDRESS ERROR!!!');\n        uint liquidity = 0;\n\n        uint supplyValue;\n        uint borrowValue;\n\n        (supplyValue, borrowValue) = getAccountValues(account);\n\n        borrowValue = borrowValue.mul(collateralFactor.add(MANTISSA));\n        borrowValue = borrowValue.div(MANTISSA);\n\n        if (borrowValue < supplyValue)\n            liquidity = supplyValue.sub(borrowValue);\n\n        return liquidity;\n    }\n\n    function getAccountHealth(address account) public view returns (uint) {\n        require(account != address(0) , 'ADDRESS ERROR!!!');\n        uint supplyValue;\n        uint borrowValue;\n\n        (supplyValue, borrowValue) = getAccountValues(account);\n\n        return calculateHealthIndex(supplyValue, borrowValue);\n    }\n    \n    function calculateHealthIndex(uint supplyValue, uint borrowValue) internal view returns (uint) {\n        if (supplyValue == 0 || borrowValue == 0)\n            return 0;\n\n        borrowValue = borrowValue.mul(liquidationFactor.add(MANTISSA));\n        borrowValue = borrowValue.div(MANTISSA);\n        \n        return supplyValue.mul(MANTISSA).div(borrowValue);\n    }\n\n    function getAccountValues(address account) public view returns (uint supplyValue, uint borrowValue) {\n        require(account != address(0) , 'ADDRESS ERROR!!!');\n        for (uint k = 0; k < marketList.length; k++) {\n            MarketInterface market = MarketInterface(marketList[k]);\n            uint price = getPrice(MarketInterface(marketList[k]));\n            \n            supplyValue = supplyValue.add(market.updatedSupplyOf(account).mul(price));\n            borrowValue = borrowValue.add(market.updatedBorrowBy(account).mul(price));\n        }\n    }\n    \n    function liquidateCollateral(address borrower, address liquidator, uint amount, MarketInterface collateralMarket) public onlyMarket returns (uint collateralAmount)  {\n        require(borrower != address(0) , 'ADDRESS ERROR!!!');\n        require(liquidator != address(0) , 'ADDRESS ERROR!!!');\n        uint price = getPrice(MarketInterface(msg.sender));        \n        require(price > 0);\n\n        uint collateralPrice = getPrice(collateralMarket);        \n        require(collateralPrice > 0);\n        \n        uint supplyValue;\n        uint borrowValue;\n\n        (supplyValue, borrowValue) = getAccountValues(borrower);\n        require(borrowValue > 0,'borrowValue');\n        \n        // uint healthIndex = calculateHealthIndex(supplyValue, borrowValue);\n        \n        // require(healthIndex <= MANTISSA);\n        \n        // uint liquidationValue = amount.mul(price).div(unit);\n        // uint liquidationPercentage = liquidationValue.mul(MANTISSA).div(borrowValue);\n        // uint collateralValue = supplyValue.mul(liquidationPercentage).div(MANTISSA);\n        \n        // collateralAmount = collateralValue.mul(unit).div(collateralPrice);\n        \n        // collateralMarket.transferTo(borrower, liquidator, collateralAmount);\n    }\n}\n\n",
  "sourcePath": "/Users/fanxu/www/node/DeFi-ETH/contracts/Controller.sol",
  "compiler": {
    "name": "solc",
    "version": "0.5.12+commit.7709ece9.Emscripten.clang"
  },
  "schemaVersion": "3.2.5",
  "updatedAt": "2021-06-01T03:12:34.777Z",
  "devdoc": {
    "methods": {}
  },
  "userdoc": {
    "methods": {}
  }
}