{
  "contractName": "Market",
  "abi": [
    {
      "inputs": [
        {
          "internalType": "contract ERC20",
          "name": "_token",
          "type": "address"
        },
        {
          "internalType": "contract ERC20",
          "name": "_gfc",
          "type": "address"
        },
        {
          "internalType": "uint256",
          "name": "_lendRate",
          "type": "uint256"
        },
        {
          "internalType": "uint256",
          "name": "_baseBorrowAnnualRate",
          "type": "uint256"
        },
        {
          "internalType": "uint256",
          "name": "_blocksPerYear",
          "type": "uint256"
        },
        {
          "internalType": "uint256",
          "name": "_utilizationRateFraction",
          "type": "uint256"
        },
        {
          "internalType": "address",
          "name": "_devaddr",
          "type": "address"
        }
      ],
      "payable": false,
      "stateMutability": "nonpayable",
      "type": "constructor"
    },
    {
      "anonymous": false,
      "inputs": [
        {
          "indexed": false,
          "internalType": "address",
          "name": "user",
          "type": "address"
        },
        {
          "indexed": false,
          "internalType": "uint256",
          "name": "amount",
          "type": "uint256"
        }
      ],
      "name": "Borrow",
      "type": "event"
    },
    {
      "anonymous": false,
      "inputs": [
        {
          "indexed": false,
          "internalType": "address",
          "name": "borrower",
          "type": "address"
        },
        {
          "indexed": false,
          "internalType": "uint256",
          "name": "amount",
          "type": "uint256"
        },
        {
          "indexed": false,
          "internalType": "address",
          "name": "liquidator",
          "type": "address"
        },
        {
          "indexed": false,
          "internalType": "address",
          "name": "collateralMarket",
          "type": "address"
        },
        {
          "indexed": false,
          "internalType": "uint256",
          "name": "collateralAmount",
          "type": "uint256"
        }
      ],
      "name": "LiquidateBorrow",
      "type": "event"
    },
    {
      "anonymous": false,
      "inputs": [
        {
          "indexed": false,
          "internalType": "address",
          "name": "user",
          "type": "address"
        },
        {
          "indexed": false,
          "internalType": "uint256",
          "name": "amount",
          "type": "uint256"
        }
      ],
      "name": "PayBorrow",
      "type": "event"
    },
    {
      "anonymous": false,
      "inputs": [
        {
          "indexed": false,
          "internalType": "address",
          "name": "user",
          "type": "address"
        },
        {
          "indexed": false,
          "internalType": "uint256",
          "name": "amount",
          "type": "uint256"
        }
      ],
      "name": "Redeem",
      "type": "event"
    },
    {
      "anonymous": false,
      "inputs": [
        {
          "indexed": false,
          "internalType": "address",
          "name": "user",
          "type": "address"
        },
        {
          "indexed": false,
          "internalType": "uint256",
          "name": "amount",
          "type": "uint256"
        }
      ],
      "name": "Supply",
      "type": "event"
    },
    {
      "constant": true,
      "inputs": [],
      "name": "FACTOR",
      "outputs": [
        {
          "internalType": "uint256",
          "name": "",
          "type": "uint256"
        }
      ],
      "payable": false,
      "stateMutability": "view",
      "type": "function"
    },
    {
      "constant": true,
      "inputs": [],
      "name": "accrualBlockNumber",
      "outputs": [
        {
          "internalType": "uint256",
          "name": "",
          "type": "uint256"
        }
      ],
      "payable": false,
      "stateMutability": "view",
      "type": "function"
    },
    {
      "constant": true,
      "inputs": [],
      "name": "baseBorrowRate",
      "outputs": [
        {
          "internalType": "uint256",
          "name": "",
          "type": "uint256"
        }
      ],
      "payable": false,
      "stateMutability": "view",
      "type": "function"
    },
    {
      "constant": true,
      "inputs": [],
      "name": "blocksPerYear",
      "outputs": [
        {
          "internalType": "uint256",
          "name": "",
          "type": "uint256"
        }
      ],
      "payable": false,
      "stateMutability": "view",
      "type": "function"
    },
    {
      "constant": true,
      "inputs": [],
      "name": "borrowIndex",
      "outputs": [
        {
          "internalType": "uint256",
          "name": "",
          "type": "uint256"
        }
      ],
      "payable": false,
      "stateMutability": "view",
      "type": "function"
    },
    {
      "constant": true,
      "inputs": [],
      "name": "controller",
      "outputs": [
        {
          "internalType": "contract Controller",
          "name": "",
          "type": "address"
        }
      ],
      "payable": false,
      "stateMutability": "view",
      "type": "function"
    },
    {
      "constant": true,
      "inputs": [],
      "name": "devaddr",
      "outputs": [
        {
          "internalType": "address",
          "name": "",
          "type": "address"
        }
      ],
      "payable": false,
      "stateMutability": "view",
      "type": "function"
    },
    {
      "constant": true,
      "inputs": [],
      "name": "gfc",
      "outputs": [
        {
          "internalType": "contract ERC20",
          "name": "",
          "type": "address"
        }
      ],
      "payable": false,
      "stateMutability": "view",
      "type": "function"
    },
    {
      "constant": true,
      "inputs": [],
      "name": "lendRate",
      "outputs": [
        {
          "internalType": "uint256",
          "name": "",
          "type": "uint256"
        }
      ],
      "payable": false,
      "stateMutability": "view",
      "type": "function"
    },
    {
      "constant": true,
      "inputs": [],
      "name": "owner",
      "outputs": [
        {
          "internalType": "address",
          "name": "",
          "type": "address"
        }
      ],
      "payable": false,
      "stateMutability": "view",
      "type": "function"
    },
    {
      "constant": true,
      "inputs": [],
      "name": "supplyIndex",
      "outputs": [
        {
          "internalType": "uint256",
          "name": "",
          "type": "uint256"
        }
      ],
      "payable": false,
      "stateMutability": "view",
      "type": "function"
    },
    {
      "constant": true,
      "inputs": [],
      "name": "token",
      "outputs": [
        {
          "internalType": "contract ERC20",
          "name": "",
          "type": "address"
        }
      ],
      "payable": false,
      "stateMutability": "view",
      "type": "function"
    },
    {
      "constant": true,
      "inputs": [],
      "name": "totalBorrows",
      "outputs": [
        {
          "internalType": "uint256",
          "name": "",
          "type": "uint256"
        }
      ],
      "payable": false,
      "stateMutability": "view",
      "type": "function"
    },
    {
      "constant": true,
      "inputs": [],
      "name": "totalSupply",
      "outputs": [
        {
          "internalType": "uint256",
          "name": "",
          "type": "uint256"
        }
      ],
      "payable": false,
      "stateMutability": "view",
      "type": "function"
    },
    {
      "constant": true,
      "inputs": [],
      "name": "utilizationRateFraction",
      "outputs": [
        {
          "internalType": "uint256",
          "name": "",
          "type": "uint256"
        }
      ],
      "payable": false,
      "stateMutability": "view",
      "type": "function"
    },
    {
      "constant": false,
      "inputs": [
        {
          "internalType": "uint256",
          "name": "_utilizationRateFraction",
          "type": "uint256"
        }
      ],
      "name": "setUtilizationRateFraction",
      "outputs": [],
      "payable": false,
      "stateMutability": "nonpayable",
      "type": "function"
    },
    {
      "constant": false,
      "inputs": [
        {
          "internalType": "uint256",
          "name": "_blocksPerYear",
          "type": "uint256"
        }
      ],
      "name": "setBlocksPerYear",
      "outputs": [],
      "payable": false,
      "stateMutability": "nonpayable",
      "type": "function"
    },
    {
      "constant": false,
      "inputs": [
        {
          "internalType": "contract ERC20",
          "name": "_gfc",
          "type": "address"
        }
      ],
      "name": "setGfc",
      "outputs": [],
      "payable": false,
      "stateMutability": "nonpayable",
      "type": "function"
    },
    {
      "constant": false,
      "inputs": [
        {
          "internalType": "uint256",
          "name": "_lendRate",
          "type": "uint256"
        }
      ],
      "name": "setLendRate",
      "outputs": [],
      "payable": false,
      "stateMutability": "nonpayable",
      "type": "function"
    },
    {
      "constant": true,
      "inputs": [
        {
          "internalType": "uint256",
          "name": "_amount",
          "type": "uint256"
        }
      ],
      "name": "getLendGfc",
      "outputs": [
        {
          "internalType": "uint256",
          "name": "",
          "type": "uint256"
        }
      ],
      "payable": false,
      "stateMutability": "view",
      "type": "function"
    },
    {
      "constant": true,
      "inputs": [],
      "name": "getCash",
      "outputs": [
        {
          "internalType": "uint256",
          "name": "",
          "type": "uint256"
        }
      ],
      "payable": false,
      "stateMutability": "view",
      "type": "function"
    },
    {
      "constant": true,
      "inputs": [
        {
          "internalType": "uint256",
          "name": "cash",
          "type": "uint256"
        },
        {
          "internalType": "uint256",
          "name": "borrowed",
          "type": "uint256"
        },
        {
          "internalType": "uint256",
          "name": "reserves",
          "type": "uint256"
        }
      ],
      "name": "utilizationRate",
      "outputs": [
        {
          "internalType": "uint256",
          "name": "",
          "type": "uint256"
        }
      ],
      "payable": false,
      "stateMutability": "pure",
      "type": "function"
    },
    {
      "constant": true,
      "inputs": [
        {
          "internalType": "uint256",
          "name": "cash",
          "type": "uint256"
        },
        {
          "internalType": "uint256",
          "name": "borrowed",
          "type": "uint256"
        },
        {
          "internalType": "uint256",
          "name": "reserves",
          "type": "uint256"
        }
      ],
      "name": "getBorrowRate",
      "outputs": [
        {
          "internalType": "uint256",
          "name": "",
          "type": "uint256"
        }
      ],
      "payable": false,
      "stateMutability": "view",
      "type": "function"
    },
    {
      "constant": true,
      "inputs": [
        {
          "internalType": "uint256",
          "name": "cash",
          "type": "uint256"
        },
        {
          "internalType": "uint256",
          "name": "borrowed",
          "type": "uint256"
        },
        {
          "internalType": "uint256",
          "name": "reserves",
          "type": "uint256"
        }
      ],
      "name": "getSupplyRate",
      "outputs": [
        {
          "internalType": "uint256",
          "name": "",
          "type": "uint256"
        }
      ],
      "payable": false,
      "stateMutability": "view",
      "type": "function"
    },
    {
      "constant": true,
      "inputs": [],
      "name": "borrowRatePerBlock",
      "outputs": [
        {
          "internalType": "uint256",
          "name": "",
          "type": "uint256"
        }
      ],
      "payable": false,
      "stateMutability": "view",
      "type": "function"
    },
    {
      "constant": true,
      "inputs": [],
      "name": "supplyRatePerBlock",
      "outputs": [
        {
          "internalType": "uint256",
          "name": "",
          "type": "uint256"
        }
      ],
      "payable": false,
      "stateMutability": "view",
      "type": "function"
    },
    {
      "constant": true,
      "inputs": [
        {
          "internalType": "address",
          "name": "user",
          "type": "address"
        }
      ],
      "name": "supplyOf",
      "outputs": [
        {
          "internalType": "uint256",
          "name": "",
          "type": "uint256"
        }
      ],
      "payable": false,
      "stateMutability": "view",
      "type": "function"
    },
    {
      "constant": true,
      "inputs": [
        {
          "internalType": "address",
          "name": "user",
          "type": "address"
        }
      ],
      "name": "balanceOf",
      "outputs": [
        {
          "internalType": "uint256",
          "name": "",
          "type": "uint256"
        }
      ],
      "payable": false,
      "stateMutability": "view",
      "type": "function"
    },
    {
      "constant": true,
      "inputs": [
        {
          "internalType": "address",
          "name": "user",
          "type": "address"
        }
      ],
      "name": "borrowBy",
      "outputs": [
        {
          "internalType": "uint256",
          "name": "",
          "type": "uint256"
        }
      ],
      "payable": false,
      "stateMutability": "view",
      "type": "function"
    },
    {
      "constant": true,
      "inputs": [
        {
          "internalType": "address",
          "name": "user",
          "type": "address"
        }
      ],
      "name": "updatedBorrowBy",
      "outputs": [
        {
          "internalType": "uint256",
          "name": "",
          "type": "uint256"
        }
      ],
      "payable": false,
      "stateMutability": "view",
      "type": "function"
    },
    {
      "constant": true,
      "inputs": [
        {
          "internalType": "address",
          "name": "user",
          "type": "address"
        }
      ],
      "name": "updatedSupplyOf",
      "outputs": [
        {
          "internalType": "uint256",
          "name": "",
          "type": "uint256"
        }
      ],
      "payable": false,
      "stateMutability": "view",
      "type": "function"
    },
    {
      "constant": false,
      "inputs": [
        {
          "internalType": "contract Controller",
          "name": "_controller",
          "type": "address"
        }
      ],
      "name": "setController",
      "outputs": [],
      "payable": false,
      "stateMutability": "nonpayable",
      "type": "function"
    },
    {
      "constant": false,
      "inputs": [
        {
          "internalType": "uint256",
          "name": "amount",
          "type": "uint256"
        }
      ],
      "name": "supply",
      "outputs": [],
      "payable": false,
      "stateMutability": "nonpayable",
      "type": "function"
    },
    {
      "constant": false,
      "inputs": [
        {
          "internalType": "uint256",
          "name": "amount",
          "type": "uint256"
        }
      ],
      "name": "mint",
      "outputs": [],
      "payable": false,
      "stateMutability": "nonpayable",
      "type": "function"
    },
    {
      "constant": false,
      "inputs": [
        {
          "internalType": "uint256",
          "name": "amount",
          "type": "uint256"
        }
      ],
      "name": "redeem",
      "outputs": [],
      "payable": false,
      "stateMutability": "nonpayable",
      "type": "function"
    },
    {
      "constant": false,
      "inputs": [
        {
          "internalType": "uint256",
          "name": "amount",
          "type": "uint256"
        }
      ],
      "name": "borrow",
      "outputs": [],
      "payable": false,
      "stateMutability": "nonpayable",
      "type": "function"
    },
    {
      "constant": false,
      "inputs": [],
      "name": "accrueInterest",
      "outputs": [],
      "payable": false,
      "stateMutability": "nonpayable",
      "type": "function"
    },
    {
      "constant": true,
      "inputs": [],
      "name": "getUpdatedTotalBorrows",
      "outputs": [
        {
          "internalType": "uint256",
          "name": "",
          "type": "uint256"
        }
      ],
      "payable": false,
      "stateMutability": "view",
      "type": "function"
    },
    {
      "constant": true,
      "inputs": [],
      "name": "getUpdatedTotalSupply",
      "outputs": [
        {
          "internalType": "uint256",
          "name": "",
          "type": "uint256"
        }
      ],
      "payable": false,
      "stateMutability": "view",
      "type": "function"
    },
    {
      "constant": false,
      "inputs": [
        {
          "internalType": "uint256",
          "name": "amount",
          "type": "uint256"
        }
      ],
      "name": "payBorrow",
      "outputs": [],
      "payable": false,
      "stateMutability": "nonpayable",
      "type": "function"
    },
    {
      "constant": false,
      "inputs": [],
      "name": "liquidateBorrow",
      "outputs": [],
      "payable": false,
      "stateMutability": "nonpayable",
      "type": "function"
    },
    {
      "constant": false,
      "inputs": [
        {
          "internalType": "address",
          "name": "sender",
          "type": "address"
        },
        {
          "internalType": "address",
          "name": "receiver",
          "type": "address"
        },
        {
          "internalType": "uint256",
          "name": "amount",
          "type": "uint256"
        }
      ],
      "name": "transferTo",
      "outputs": [],
      "payable": false,
      "stateMutability": "nonpayable",
      "type": "function"
    }
  ],
  "bytecode": "0x60806040523480156200001157600080fd5b5060405162001ef438038062001ef4833981810160405260e08110156200003757600080fd5b5080516020808301516040808501516060860151608087015160a088015160c09098015184517f18160ddd000000000000000000000000000000000000000000000000000000008152945197989597939692959194919390926000926001600160a01b038b16926318160ddd92600480840193919291829003018186803b158015620000c257600080fd5b505afa158015620000d7573d6000803e3d6000fd5b505050506040513d6020811015620000ee57600080fd5b50511015620000fc57600080fd5b60008054336001600160a01b031991821617909155600180549091166001600160a01b038916179055670de0b6b3a76400006008819055600455600c839055620001538484620001e1602090811b620013bb17901c565b600a5543600555600d80546001600160a01b0319166001600160a01b038316179055620001ae836200019a84670de0b6b3a764000062000266602090811b6200135917901c565b620001e160201b620013bb1790919060201c565b600b555050600680546001600160a01b0319166001600160a01b0395909516949094179093555060075550620002e59050565b60008082116200025257604080517f08c379a000000000000000000000000000000000000000000000000000000000815260206004820152601a60248201527f536166654d6174683a206469766973696f6e206279207a65726f000000000000604482015290519081900360640190fd5b8183816200025c57fe5b0490505b92915050565b600082620002775750600062000260565b828202828482816200028557fe5b0414620002de576040517f08c379a000000000000000000000000000000000000000000000000000000000815260040180806020018281038252602181526020018062001ed36021913960400191505060405180910390fd5b9392505050565b611bde80620002f56000396000f3fe608060405234801561001057600080fd5b506004361061025e5760003560e01c8063a0712d6811610146578063c5ebeaec116100c3578063e681dc7111610087578063e681dc711461053f578063ea2da0f414610565578063f5d1b7e81461058b578063f77c4791146105a8578063f8f9da28146105b0578063fc0c546a146105b85761025e565b8063c5ebeaec146104d8578063d49e77cd146104f5578063da3431da146104fd578063db006a7514610505578063e5fa2b70146105225761025e565b8063ad8feadb1161010a578063ad8feadb14610492578063ae9d70b0146104b8578063b7098eea146104c0578063bf386682146104c8578063c2b170cb146104d05761025e565b8063a0712d68146102f0578063a385fb9614610444578063a5f2a1521461044c578063a6afed9514610482578063aa5af0fd1461048a5761025e565b80634a319647116101df57806370a08231116101a357806370a082311461039257806378f1dc03146103e95780638b785dcf146103f15780638da5cb5b1461040e57806392eefe9b1461041657806398f1bc121461043c5761025e565b80634a319647146103615780634c467a781461038a57806362400e4c146103925780636c540baf146103b85780636e71e2d8146103c05761025e565b806335815b951161022657806335815b951461030f5780633b1d21a2146103175780633c4278b51461031f5780633f6a36391461033c57806347bd3718146103595761025e565b80630b8bb4721461026357806315f240531461028757806318160ddd146102c25780632aad6aa8146102ca57806335403023146102f0575b600080fd5b61026b6105c0565b604080516001600160a01b039092168252519081900360200190f35b6102b06004803603606081101561029d57600080fd5b50803590602081013590604001356105cf565b60408051918252519081900360200190f35b6102b0610629565b6102b0600480360360208110156102e057600080fd5b50356001600160a01b031661062f565b61030d6004803603602081101561030657600080fd5b503561068f565b005b6102b06106d7565b6102b06106e3565b61030d6004803603602081101561033557600080fd5b503561075f565b6102b06004803603602081101561035257600080fd5b5035610764565b6102b06109a9565b6102b06004803603606081101561037757600080fd5b50803590602081013590604001356109af565b61030d6109da565b6102b0600480360360208110156103a857600080fd5b50356001600160a01b03166109dc565b6102b06109f7565b6102b0600480360360608110156103d657600080fd5b50803590602081013590604001356109fd565b6102b0610a4f565b61030d6004803603602081101561040757600080fd5b5035610a65565b61026b610a81565b61030d6004803603602081101561042c57600080fd5b50356001600160a01b0316610a90565b6102b0610ac9565b6102b0610acf565b61030d6004803603606081101561046257600080fd5b506001600160a01b03813581169160208101359091169060400135610ad5565b61030d610b09565b6102b0610b2d565b6102b0600480360360208110156104a857600080fd5b50356001600160a01b0316610b33565b6102b0610b4e565b6102b0610b6a565b6102b0610b70565b6102b0610b76565b61030d600480360360208110156104ee57600080fd5b5035610b84565b61026b610f80565b6102b0610f8f565b61030d6004803603602081101561051b57600080fd5b5035610f95565b61030d6004803603602081101561053857600080fd5b503561121f565b6102b06004803603602081101561055557600080fd5b50356001600160a01b031661123b565b61030d6004803603602081101561057b57600080fd5b50356001600160a01b031661126f565b61030d600480360360208110156105a157600080fd5b5035611291565b61026b611324565b6102b0611333565b61026b61134a565b6006546001600160a01b031681565b6000806105dd8585856109fd565b905061061e600a54610612670de0b6b3a7640000610606600b548661135990919063ffffffff16565b9063ffffffff6113bb16565b9063ffffffff61142216565b9150505b9392505050565b60035481565b6001600160a01b0381166000908152600f60205260408120805461065757600091505061068a565b6000806106634361147c565b6001850154855492945090925061068491610606908463ffffffff61135916565b93505050505b919050565b6106993382611529565b604080513381526020810183905281517fadacf827efe383160192c092d8658471945c074229a9746679b5e2b74adff191929181900390910190a150565b670de0b6b3a764000081565b600154604080516370a0823160e01b815230600482015290516000926001600160a01b0316916370a08231916024808301926020929190829003018186803b15801561072e57600080fd5b505afa158015610742573d6000803e3d6000fd5b505050506040513d602081101561075857600080fd5b5051905090565b600755565b600254604080516341976e0960e01b8152306004820152905160009283926001600160a01b03909116916341976e0991602480820192602092909190829003018186803b1580156107b457600080fd5b505afa1580156107c8573d6000803e3d6000fd5b505050506040513d60208110156107de57600080fd5b505160075460025460408051630241ebdb60e61b815290519394506000936108939361271093610606939192610887926001600160a01b039092169163907af6c0916004808301926020929190829003018186803b15801561083f57600080fd5b505afa158015610853573d6000803e3d6000fd5b505050506040513d602081101561086957600080fd5b5051610606670de0b6b3a76400006108878c8b63ffffffff61135916565b9063ffffffff61135916565b6002546006546040805163053f710d60e41b81526001600160a01b039283166004820152905193945060009391909216916353f710d0916024808301926020929190829003018186803b1580156108e957600080fd5b505afa1580156108fd573d6000803e3d6000fd5b505050506040513d602081101561091357600080fd5b505160025460408051630241ebdb60e61b8152905192935061068492670de0b6b3a76400009261060692869284926001600160a01b03169163907af6c0916004808301926020929190829003018186803b15801561097057600080fd5b505afa158015610984573d6000803e3d6000fd5b505050506040513d602081101561099a57600080fd5b5051879063ffffffff61135916565b60095481565b6000806109bd8585856105cf565b905061061e670de0b6b3a7640000610606836108878989896109fd565b565b6001600160a01b03166000908152600e602052604090205490565b60055481565b600082610a0c57506000610622565b610a47610a2f83610a23878763ffffffff61142216565b9063ffffffff61168816565b61060685670de0b6b3a764000063ffffffff61135916565b949350505050565b6000806000610a5d4361147c565b509250505090565b6000546001600160a01b03163314610a7c57600080fd5b600b55565b6000546001600160a01b031681565b6000546001600160a01b03163314610aa757600080fd5b600280546001600160a01b0319166001600160a01b0392909216919091179055565b60045481565b600c5481565b6002546001600160a01b03163314610aec57600080fd5b60008111610af957600080fd5b610b048383836116e5565b505050565b43610b138161147c565b600855600955610b228161191d565b600455600355600555565b60085481565b6001600160a01b03166000908152600f602052604090205490565b6000610b65610b5b6106e3565b60095460006109af565b905090565b600b5481565b600a5481565b6000806000610a5d4361191d565b600154604080516370a0823160e01b8152306004820152905183926001600160a01b0316916370a08231916024808301926020929190829003018186803b158015610bce57600080fd5b505afa158015610be2573d6000803e3d6000fd5b505050506040513d6020811015610bf857600080fd5b50511015610c0557600080fd5b610c0d610b09565b336000908152600f60205260409020805415610c6f576000610c4e8260000154610a238460010154610606600854876000015461135990919063ffffffff16565b8254909150610c63908263ffffffff61142216565b82555060085460018201555b600254604080516341976e0960e01b815230600482015290516000926001600160a01b0316916341976e09916024808301926020929190829003018186803b158015610cba57600080fd5b505afa158015610cce573d6000803e3d6000fd5b505050506040513d6020811015610ce457600080fd5b505160025460408051630241ebdb60e61b81529051929350610d73926001600160a01b039092169163907af6c091600480820192602092909190829003018186803b158015610d3257600080fd5b505afa158015610d46573d6000803e3d6000fd5b505050506040513d6020811015610d5c57600080fd5b50516106066002610887858863ffffffff61135916565b60025460408051635ec88c7960e01b815233600482015290516001600160a01b0390921691635ec88c7991602480820192602092909190829003018186803b158015610dbe57600080fd5b505afa158015610dd2573d6000803e3d6000fd5b505050506040513d6020811015610de857600080fd5b50511015610e3d576040805162461bcd60e51b815260206004820152601c60248201527f4e6f7420656e6f756768206163636f756e74206c697175696469747900000000604482015290519081900360640190fd5b6001546040805163a9059cbb60e01b81523360048201526024810186905290516001600160a01b039092169163a9059cbb916044808201926020929091908290030181600087803b158015610e9157600080fd5b505af1158015610ea5573d6000803e3d6000fd5b505050506040513d6020811015610ebb57600080fd5b5051610f0e576040805162461bcd60e51b815260206004820152601a60248201527f4e6f20656e6f75676820746f6b656e7320746f20626f72726f77000000000000604482015290519081900360640190fd5b8154610f20908463ffffffff61142216565b82556008546001830155600954610f3d908463ffffffff61142216565b600955604080513381526020810185905281517fcbc04eca7e9da35cb1393a6135a199ca52e450d5e9251cbd99f7847d33a36750929181900390910190a1505050565b600d546001600160a01b031681565b60075481565b610fa03333836116e5565b600254604080516301dd56e560e51b8152336004820152815160009384936001600160a01b0390911692633baadca09260248083019392829003018186803b158015610feb57600080fd5b505afa158015610fff573d6000803e3d6000fd5b505050506040513d604081101561101557600080fd5b508051602091820151600254604080516309c0e61360e21b81529051939650919450611198936001600160a01b0390911692632703984c926004808201939291829003018186803b15801561106957600080fd5b505afa15801561107d573d6000803e3d6000fd5b505050506040513d602081101561109357600080fd5b50516002546040805163df011c4160e01b815290516106069261118b926001600160a01b039091169163df011c4191600480820192602092909190829003018186803b1580156110e257600080fd5b505afa1580156110f6573d6000803e3d6000fd5b505050506040513d602081101561110c57600080fd5b5051600254604080516309c0e61360e21b815290516001600160a01b0390921691632703984c91600480820192602092909190829003018186803b15801561115357600080fd5b505afa158015611167573d6000803e3d6000fd5b505050506040513d602081101561117d57600080fd5b50519063ffffffff61142216565b849063ffffffff61135916565b8210156111df576040805162461bcd60e51b815260206004820152601060248201526fe6b581e58aa8e680a7e4b88de8b6b32160801b604482015290519081900360640190fd5b604080513381526020810185905281517f222838db2794d11532d940e8dec38ae307ed0b63cd97c233322e221f998767a6929181900390910190a1505050565b6000546001600160a01b0316331461123657600080fd5b600c55565b6001600160a01b0381166000908152600e60205260408120805461126357600091505061068a565b6000806106634361191d565b600680546001600160a01b0319166001600160a01b0392909216919091179055565b60008061129f3333856119bf565b604080513381526020810184905281519395509193507f7d216a33e7cc5fdf358cc861228a39d01156282257a57a6ad1e2ca69953fd70492918290030190a18015610b0457604080513381526020810183905281517fadacf827efe383160192c092d8658471945c074229a9746679b5e2b74adff191929181900390910190a1505050565b6002546001600160a01b031681565b6000610b656113406106e3565b60095460006105cf565b6001546001600160a01b031681565b600082611368575060006113b5565b8282028284828161137557fe5b04146113b25760405162461bcd60e51b8152600401808060200182810382526021815260200180611b896021913960400191505060405180910390fd5b90505b92915050565b6000808211611411576040805162461bcd60e51b815260206004820152601a60248201527f536166654d6174683a206469766973696f6e206279207a65726f000000000000604482015290519081900360640190fd5b81838161141a57fe5b049392505050565b6000828201838110156113b2576040805162461bcd60e51b815260206004820152601b60248201527f536166654d6174683a206164646974696f6e206f766572666c6f770000000000604482015290519081900360640190fd5b6000806005548311611495575050600954600854611524565b6009546114a9575050600954600854611524565b600554830360006114bc82610887611333565b905060006114e1670de0b6b3a76400006106066009548561135990919063ffffffff16565b60085490915061150790610612670de0b6b3a7640000610606868463ffffffff61135916565b935061151e6009548261142290919063ffffffff16565b94505050505b915091565b600154604080516323b872dd60e01b81526001600160a01b03858116600483015230602483015260448201859052915191909216916323b872dd9160648083019260209291908290030181600087803b15801561158557600080fd5b505af1158015611599573d6000803e3d6000fd5b505050506040513d60208110156115af57600080fd5b50516115f5576040805162461bcd60e51b815260206004820152601060248201526f4e6f20656e6f75676820746f6b656e7360801b604482015290519081900360640190fd5b6115fd610b09565b6001600160a01b0382166000908152600e6020526040902061161e8361123b565b81556001600160a01b0383166000908152600e6020526040902054611649908363ffffffff61142216565b6001600160a01b0384166000908152600e60205260409020908155600454600190910155600354611680908363ffffffff61142216565b600355505050565b6000828211156116df576040805162461bcd60e51b815260206004820152601e60248201527f536166654d6174683a207375627472616374696f6e206f766572666c6f770000604482015290519081900360640190fd5b50900390565b600154604080516370a0823160e01b8152306004820152905183926001600160a01b0316916370a08231916024808301926020929190829003018186803b15801561172f57600080fd5b505afa158015611743573d6000803e3d6000fd5b505050506040513d602081101561175957600080fd5b5051101561176657600080fd5b61176e610b09565b6001600160a01b0383166000908152600e60205260408120906117908561123b565b8083556004546001600160a01b0387166000908152600e602052604090206001015582549091508311156117fe576040805162461bcd60e51b815260206004820152601060248201526f4e6f20656e6f75676820737570706c7960801b604482015290519081900360640190fd5b6001546040805163a9059cbb60e01b81526001600160a01b038781166004830152602482018790529151919092169163a9059cbb9160448083019260209291908290030181600087803b15801561185457600080fd5b505af1158015611868573d6000803e3d6000fd5b505050506040513d602081101561187e57600080fd5b50516118c4576040805162461bcd60e51b815260206004820152601060248201526f4e6f20656e6f75676820746f6b656e7360801b604482015290519081900360640190fd5b81548310156118e65781546118df908463ffffffff61168816565b82556118eb565b600082555b82600354111561191057600354611908908463ffffffff61168816565b600355611916565b60006003555b5050505050565b6000806005548311611936575050600354600454611524565b60035461194a575050600354600454611524565b6005548303600061195d82610887610b4e565b90506000611982670de0b6b3a76400006106066003548561135990919063ffffffff16565b6004549091506119a890610612670de0b6b3a7640000610606868463ffffffff61135916565b935061151e6003548261142290919063ffffffff16565b6000806119ca610b09565b6001600160a01b0384166000908152600f6020526040902080546119ed57600080fd5b6000611a188260000154610a238460010154610606600854876000015461135990919063ffffffff16565b8254909150611a2d908263ffffffff61142216565b8083556008546001840155600090861115611a5c578254611a5590879063ffffffff61168816565b8354965090505b600154604080516323b872dd60e01b81526001600160a01b038b81166004830152306024830152604482018a9052915191909216916323b872dd9160648083019260209291908290030181600087803b158015611ab857600080fd5b505af1158015611acc573d6000803e3d6000fd5b505050506040513d6020811015611ae257600080fd5b5051611b28576040805162461bcd60e51b815260206004820152601060248201526f4e6f20656e6f75676820746f6b656e7360801b604482015290519081900360640190fd5b8254861015611b4a578254611b43908763ffffffff61168816565b8355611b4f565b600083555b856009541115611b7457600954611b6c908763ffffffff61168816565b600955611b7a565b60006009555b94979496509394505050505056fe536166654d6174683a206d756c7469706c69636174696f6e206f766572666c6f77a265627a7a72315820ae094b8169d2ef3924d6b1d4cae0eb92e5570819b178d223d20abea37ffb66de64736f6c634300050c0032536166654d6174683a206d756c7469706c69636174696f6e206f766572666c6f77",
  "source": "pragma solidity >=0.5.0 <0.8.0;\n\nimport \"./lib/ERC20.sol\";\nimport \"./Controller.sol\";\nimport \"./lib/SafeMath.sol\";\n\ncontract Market is MarketInterface {\n    using SafeMath for uint256;\n\n    address public owner;\n\n    ERC20 public token;\n    Controller public controller;\n\n    uint256 public totalSupply;\n\n    uint256 public supplyIndex;\n\n    uint256 public accrualBlockNumber;\n    ERC20 public gfc;\n    uint256 public lendRate;\n    uint256 public borrowIndex;\n    uint256 public totalBorrows;\n    uint256 public baseBorrowRate;\n    uint256 public utilizationRateFraction;\n    \n    uint256 public blocksPerYear;\n    address public devaddr;\n    struct SupplySnapshot {\n        uint256 supply;\n        uint256 interestIndex;\n    }\n\n    struct BorrowSnapshot {\n        uint256 principal;\n        uint256 interestIndex;\n    }\n\n    mapping (address => SupplySnapshot) supplies;\n    mapping (address => BorrowSnapshot) borrows;\n\n    uint256 public constant FACTOR = 1e18;\n\n    event Supply(address user, uint256 amount);\n    event Redeem(address user, uint256 amount);\n    event Borrow(address user, uint256 amount);\n    event PayBorrow(address user, uint256 amount);\n    event LiquidateBorrow(address borrower, uint256 amount, address liquidator, address collateralMarket, uint256 collateralAmount);\n\n    constructor(ERC20 _token,ERC20 _gfc,uint256 _lendRate, uint256 _baseBorrowAnnualRate, uint256 _blocksPerYear, uint256 _utilizationRateFraction,address _devaddr) public {\n        require(ERC20(_token).totalSupply() >= 0);\n        owner = msg.sender;\n        token = _token;\n        borrowIndex = FACTOR;\n        supplyIndex = FACTOR;\n        blocksPerYear = _blocksPerYear;\n        baseBorrowRate = _baseBorrowAnnualRate.div(_blocksPerYear);\n        accrualBlockNumber = block.number;\n        devaddr = _devaddr;\n        utilizationRateFraction = _utilizationRateFraction.mul(FACTOR).div(_blocksPerYear);\n        gfc = _gfc;\n        lendRate = _lendRate;\n    }\n\n    modifier onlyOwner() {\n        require(msg.sender == owner);\n        _;\n    }\n\n    modifier onlyController() {\n        require(msg.sender == address(controller));\n        _;\n    }\n\n    function setUtilizationRateFraction(uint256 _utilizationRateFraction) public onlyOwner{\n        utilizationRateFraction = _utilizationRateFraction;\n    }\n\n    function setBlocksPerYear(uint256 _blocksPerYear) public onlyOwner{\n        blocksPerYear = _blocksPerYear;\n    }\n\n    function setGfc(ERC20 _gfc) public{\n        gfc = _gfc;\n    }\n\n\n    function setLendRate(uint256 _lendRate) public{\n        lendRate = _lendRate;\n    }\n\n    function getLendGfc(uint256 _amount) public view returns(uint256){\n        uint256 cprice = controller.getPrice(this);\n        uint256 amount = _amount.mul(cprice).mul(1e18).div(controller.unit()).mul(lendRate).div(10000);\n        uint256 gprice = controller.getInternalPrice(address(gfc));\n        return amount.mul(controller.unit()).div(gprice).div(1e18);\n    }\n\n\n    function getCash() public view returns (uint256) {\n        return token.balanceOf(address(this));\n    }\n\n    function utilizationRate(uint256 cash, uint256 borrowed, uint256 reserves) public pure returns (uint256) {\n        if (borrowed == 0)\n            return 0;\n        //  =  / (+-)\n        return borrowed.mul(FACTOR).div(cash.add(borrowed).sub(reserves));\n    }\n\n    function getBorrowRate(uint256 cash, uint256 borrowed, uint256 reserves) public view returns (uint256) {\n        uint256 ur = utilizationRate(cash, borrowed, reserves);\n        // \n        return ur.mul(utilizationRateFraction).div(FACTOR).add(baseBorrowRate);\n    }\n\n    function getSupplyRate(uint256 cash, uint256 borrowed, uint256 reserves) public view returns (uint256) {\n        uint256 borrowRate = getBorrowRate(cash, borrowed, reserves);\n        // \n        return utilizationRate(cash, borrowed, reserves).mul(borrowRate).div(FACTOR);\n    }\n\n    // \n    function borrowRatePerBlock() public view returns (uint256) {\n        return getBorrowRate(getCash(), totalBorrows, 0);\n    }\n\n   // \n    function supplyRatePerBlock() public view returns (uint256) {\n        return getSupplyRate(getCash(), totalBorrows, 0);\n    }\n\n    // \n    function supplyOf(address user) public view returns (uint256) {\n        return supplies[user].supply;\n    }\n\n    // \n    function balanceOf(address user) public view returns (uint256) {\n        return supplies[user].supply;\n    }\n    // \n    function borrowBy(address user) public view returns (uint256) {\n        return borrows[user].principal;\n    }\n\n    function updatedBorrowBy(address user) public view returns (uint256) {\n        BorrowSnapshot storage snapshot = borrows[user];\n\n        if (snapshot.principal == 0)\n            return 0;\n\n        uint256 newTotalBorrows;\n        uint256 newBorrowIndex;\n\n        (newTotalBorrows, newBorrowIndex) = calculateBorrowDataAtBlock(block.number);\n\n        return snapshot.principal.mul(newBorrowIndex).div(snapshot.interestIndex);\n    }\n\n    function updatedSupplyOf(address user) public view returns (uint256) {\n        SupplySnapshot storage snapshot = supplies[user];\n\n        if (snapshot.supply == 0)\n            return 0;\n\n        uint256 newTotalSupply;\n        uint256 newSupplyIndex;\n\n        (newTotalSupply, newSupplyIndex) = calculateSupplyDataAtBlock(block.number);\n\n        return snapshot.supply.mul(newSupplyIndex).div(snapshot.interestIndex);\n    }\n\n    function setController(Controller _controller) public onlyOwner {\n        controller = _controller;\n    }\n\n    function supply(uint256 amount) public {\n        supplyInternal(msg.sender, amount);\n\n        emit Supply(msg.sender, amount);\n    }\n\n    function mint(uint256 amount) public {\n        supplyInternal(msg.sender, amount);\n\n        emit Supply(msg.sender, amount);\n    }\n\n    function supplyInternal(address supplier, uint256 amount) internal {\n        // TODO check msg.sender != this\n        require(token.transferFrom(supplier, address(this), amount), \"No enough tokens\");\n\n        accrueInterest();\n\n        SupplySnapshot storage supplySnapshot = supplies[supplier];\n\n        supplySnapshot.supply = updatedSupplyOf(supplier);\n        supplies[supplier].supply = supplies[supplier].supply.add(amount);\n        supplies[supplier].interestIndex = supplyIndex;\n\n        totalSupply = totalSupply.add(amount);\n    }\n\n    function redeem(uint256 amount) public {\n        redeemInternal(msg.sender, msg.sender, amount);\n\n        uint256 supplierSupplyValue;\n        uint256 supplierBorrowValue;\n\n        (supplierSupplyValue, supplierBorrowValue) = controller.getAccountValues(msg.sender);\n\n        require(supplierSupplyValue >= supplierBorrowValue.mul(controller.MANTISSA().add(controller.collateralFactor())).div(controller.MANTISSA()),'!');\n\n        emit Redeem(msg.sender, amount);\n    }\n\n    function redeemInternal(address supplier, address receiver, uint256 amount) internal {\n        require(token.balanceOf(address(this)) >= amount);\n\n        accrueInterest();\n\n        SupplySnapshot storage supplySnapshot = supplies[supplier];\n        uint256 currentsupply = updatedSupplyOf(supplier);\n        supplySnapshot.supply = currentsupply;\n        \n        supplies[supplier].interestIndex = supplyIndex;\n\n        require(supplySnapshot.supply >= amount, \"No enough supply\");\n\n        require(token.transfer(receiver, amount), \"No enough tokens\");\n        if(supplySnapshot.supply >amount){\n            supplySnapshot.supply = supplySnapshot.supply.sub(amount);\n        } else{\n            supplySnapshot.supply = 0;\n        }\n        if(totalSupply > amount){\n            totalSupply = totalSupply.sub(amount);\n        } else{\n            totalSupply = 0;\n        }\n    }\n\n    function borrow(uint256 amount) public {\n        // gfc.transferFrom(msg.sender, address(this), getLendGfc(amount));\n        require(token.balanceOf(address(this)) >= amount);\n\n        accrueInterest();\n\n        BorrowSnapshot storage borrowSnapshot = borrows[msg.sender];\n\n        if (borrowSnapshot.principal > 0) {\n            uint256 interest = borrowSnapshot.principal.mul(borrowIndex).div(borrowSnapshot.interestIndex).sub(borrowSnapshot.principal);\n\n            borrowSnapshot.principal = borrowSnapshot.principal.add(interest);\n            borrowSnapshot.interestIndex = borrowIndex;\n        }\n        uint256 cprice = controller.getPrice(this);\n        require(controller.getAccountLiquidity(msg.sender) >= cprice.mul(amount).mul(2).div(controller.unit()), \"Not enough account liquidity\");\n\n        require(token.transfer(msg.sender, amount), \"No enough tokens to borrow\");\n\n        borrowSnapshot.principal = borrowSnapshot.principal.add(amount);\n        borrowSnapshot.interestIndex = borrowIndex;\n\n        totalBorrows = totalBorrows.add(amount);\n        \n        emit Borrow(msg.sender, amount);\n    }\n\n    function accrueInterest() public {\n        uint256 currentBlockNumber = block.number;\n\n        (totalBorrows, borrowIndex) = calculateBorrowDataAtBlock(currentBlockNumber);\n        (totalSupply, supplyIndex) = calculateSupplyDataAtBlock(currentBlockNumber);\n\n        accrualBlockNumber = currentBlockNumber;\n    }\n\n    function calculateBorrowDataAtBlock(uint256 newBlockNumber) internal view returns (uint256 newTotalBorrows, uint256 newBorrowIndex) {\n        if (newBlockNumber <= accrualBlockNumber)\n            return (totalBorrows, borrowIndex);\n\n        if (totalBorrows == 0)\n            return (totalBorrows, borrowIndex);\n\n        uint256 blockDelta = newBlockNumber - accrualBlockNumber;\n        // \n        uint256 simpleInterestFactor = borrowRatePerBlock().mul(blockDelta);\n        // \n        uint256 interestAccumulated = simpleInterestFactor.mul(totalBorrows).div(FACTOR);\n\n        newBorrowIndex = simpleInterestFactor.mul(borrowIndex).div(FACTOR).add(borrowIndex);\n        newTotalBorrows = interestAccumulated.add(totalBorrows);\n    }\n\n    function calculateSupplyDataAtBlock(uint256 newBlockNumber) internal view returns (uint256 newTotalSupply, uint256 newSupplyIndex) {\n        if (newBlockNumber <= accrualBlockNumber)\n            return (totalSupply, supplyIndex);\n\n        if (totalSupply == 0)\n            return (totalSupply, supplyIndex);\n\n        uint256 blockDelta = newBlockNumber - accrualBlockNumber;\n\n        uint256 simpleInterestFactor = supplyRatePerBlock().mul(blockDelta);\n        uint256 interestAccumulated = simpleInterestFactor.mul(totalSupply).div(FACTOR);\n\n        newSupplyIndex = simpleInterestFactor.mul(supplyIndex).div(FACTOR).add(supplyIndex);\n        newTotalSupply = interestAccumulated.add(totalSupply);\n    }\n\n    function getUpdatedTotalBorrows() public view returns (uint256) {\n        uint256 newTotalBorrows;\n        uint256 newBorrowIndex;\n\n        (newTotalBorrows, newBorrowIndex) = calculateBorrowDataAtBlock(block.number);\n\n        return newTotalBorrows;\n    }\n\n    function getUpdatedTotalSupply() public view returns (uint256) {\n        uint256 newTotalSupply;\n        uint256 newSupplyIndex;\n\n        (newTotalSupply, newSupplyIndex) = calculateSupplyDataAtBlock(block.number);\n\n        return newTotalSupply;\n    }\n\n    function payBorrow(uint256 amount) public {\n        uint256 paid;\n        uint256 additional;\n        \n        (paid, additional) = payBorrowInternal(msg.sender, msg.sender, amount);\n        \n        emit PayBorrow(msg.sender, paid);\n        \n        if (additional > 0)\n            emit Supply(msg.sender, additional);\n    }\n\n    function payBorrowInternal(address payer, address borrower, uint256 amount) internal returns (uint256 paid, uint256 supplied) {\n        accrueInterest();\n\n        BorrowSnapshot storage snapshot = borrows[borrower];\n\n        require(snapshot.principal > 0);\n\n        uint256 interest = snapshot.principal.mul(borrowIndex).div(snapshot.interestIndex).sub(snapshot.principal);\n\n        snapshot.principal = snapshot.principal.add(interest);\n        snapshot.interestIndex = borrowIndex;\n\n        uint256 additional;\n\n        if (snapshot.principal < amount) {\n            additional = amount.sub(snapshot.principal);\n            amount = snapshot.principal;\n        }\n\n        require(token.transferFrom(payer, address(this), amount), \"No enough tokens\");\n        if(snapshot.principal >amount){\n            snapshot.principal = snapshot.principal.sub(amount);\n        } else{\n            snapshot.principal = 0;\n        }\n        if(totalBorrows>amount){\n            totalBorrows = totalBorrows.sub(amount);\n        } else{\n            totalBorrows = 0;\n        }\n\n        // if (additional > 0)\n        //     supplyInternal(payer, additional);\n            \n        return (amount, additional);\n    }\n    \n    function liquidateBorrow() public {\n        // require(amount > 0,'');\n        // require(borrower != msg.sender,'sender ');\n        \n        // accrueInterest();\n        // collateralMarket.accrueInterest();\n\n        // uint256 debt = updatedBorrowBy(borrower);\n        \n        // require(debt >= amount);\n        // require(token.balanceOf(msg.sender) >= amount);\n        \n        // uint256 collateralAmount = controller.liquidateCollateral(borrower, msg.sender, amount, collateralMarket);\n\n        // uint256 paid;\n        // uint256 additional;\n\n        // (paid, additional) = payBorrowInternal(msg.sender, borrower, amount);\n        \n        // emit LiquidateBorrow(borrower, paid, msg.sender, address(collateralMarket), collateralAmount);\n        \n        // if (additional > 0)\n        //     emit Supply(msg.sender, additional);\n    }\n    \n    function transferTo(address sender, address receiver, uint256 amount) public onlyController {\n        require(amount > 0);\n        redeemInternal(sender, receiver, amount);\n    }\n}\n\n",
  "sourcePath": "/Users/fanxu/www/node/DeFi-ETH/contracts/Market.sol",
  "compiler": {
    "name": "solc",
    "version": "0.5.12+commit.7709ece9.Emscripten.clang"
  },
  "schemaVersion": "3.2.5",
  "updatedAt": "2021-06-01T03:28:15.693Z",
  "devdoc": {
    "methods": {}
  },
  "userdoc": {
    "methods": {}
  }
}